{
  "address": "0x940F4AB3F57a8b80B19B686603a973f6770b589C",
  "abi": [
    {
      "inputs": [],
      "name": "getAllTransactions",
      "outputs": [
        {
          "components": [
            {
              "internalType": "address",
              "name": "sender",
              "type": "address"
            },
            {
              "internalType": "address",
              "name": "reciever",
              "type": "address"
            },
            {
              "internalType": "uint256",
              "name": "amount",
              "type": "uint256"
            },
            {
              "internalType": "string",
              "name": "message",
              "type": "string"
            },
            {
              "internalType": "uint256",
              "name": "timestamp",
              "type": "uint256"
            }
          ],
          "internalType": "struct Transactions.TransferStruct[]",
          "name": "",
          "type": "tuple[]"
        }
      ],
      "stateMutability": "view",
      "type": "function"
    },
    {
      "inputs": [],
      "name": "getTransactionCount",
      "outputs": [
        {
          "internalType": "uint256",
          "name": "",
          "type": "uint256"
        }
      ],
      "stateMutability": "view",
      "type": "function"
    },
    {
      "inputs": [
        {
          "internalType": "address payable",
          "name": "reciever",
          "type": "address"
        },
        {
          "internalType": "uint256",
          "name": "amount",
          "type": "uint256"
        },
        {
          "internalType": "string",
          "name": "message",
          "type": "string"
        }
      ],
      "name": "sendCrypto",
      "outputs": [],
      "stateMutability": "nonpayable",
      "type": "function"
    }
  ],
  "transactionHash": "0xa4974defb51d243dddd3185037b884dfe3c1400074b31e8941ce5fce74f2d250",
  "args": [],
  "numDeployments": 1,
  "solcInputHash": "46b92c13bd5ff414b465fd14f7e0d5f7",
  "bytecode": "0x608060405234801561001057600080fd5b50610bb5806100206000396000f3fe608060405234801561001057600080fd5b50600436106100415760003560e01c806327506f53146100465780632e7700f0146100645780635f5b623714610082575b600080fd5b61004e61009e565b60405161005b91906105d0565b60405180910390f35b61006c61024f565b6040516100799190610601565b60405180910390f35b61009c600480360381019061009791906107cf565b610258565b005b60606001805480602002602001604051908101604052809291908181526020016000905b8282101561024657838290600052602060002090600502016040518060a00160405290816000820160009054906101000a900473ffffffffffffffffffffffffffffffffffffffff1673ffffffffffffffffffffffffffffffffffffffff1673ffffffffffffffffffffffffffffffffffffffff1681526020016001820160009054906101000a900473ffffffffffffffffffffffffffffffffffffffff1673ffffffffffffffffffffffffffffffffffffffff1673ffffffffffffffffffffffffffffffffffffffff168152602001600282015481526020016003820180546101ab9061086d565b80601f01602080910402602001604051908101604052809291908181526020018280546101d79061086d565b80156102245780601f106101f957610100808354040283529160200191610224565b820191906000526020600020905b81548152906001019060200180831161020757829003601f168201915b50505050508152602001600482015481525050815260200190600101906100c2565b50505050905090565b60008054905090565b600160008082825461026a91906108cd565b9250508190555060016040518060a001604052803373ffffffffffffffffffffffffffffffffffffffff1681526020018573ffffffffffffffffffffffffffffffffffffffff16815260200184815260200183815260200142815250908060018154018082558091505060019003906000526020600020906005020160009091909190915060008201518160000160006101000a81548173ffffffffffffffffffffffffffffffffffffffff021916908373ffffffffffffffffffffffffffffffffffffffff16021790555060208201518160010160006101000a81548173ffffffffffffffffffffffffffffffffffffffff021916908373ffffffffffffffffffffffffffffffffffffffff16021790555060408201518160020155606082015181600301908161039c9190610aad565b50608082015181600401555050505050565b600081519050919050565b600082825260208201905092915050565b6000819050602082019050919050565b600073ffffffffffffffffffffffffffffffffffffffff82169050919050565b6000610405826103da565b9050919050565b610415816103fa565b82525050565b6000819050919050565b61042e8161041b565b82525050565b600081519050919050565b600082825260208201905092915050565b60005b8381101561046e578082015181840152602081019050610453565b60008484015250505050565b6000601f19601f8301169050919050565b600061049682610434565b6104a0818561043f565b93506104b0818560208601610450565b6104b98161047a565b840191505092915050565b600060a0830160008301516104dc600086018261040c565b5060208301516104ef602086018261040c565b5060408301516105026040860182610425565b506060830151848203606086015261051a828261048b565b915050608083015161052f6080860182610425565b508091505092915050565b600061054683836104c4565b905092915050565b6000602082019050919050565b6000610566826103ae565b61057081856103b9565b935083602082028501610582856103ca565b8060005b858110156105be578484038952815161059f858261053a565b94506105aa8361054e565b925060208a01995050600181019050610586565b50829750879550505050505092915050565b600060208201905081810360008301526105ea818461055b565b905092915050565b6105fb8161041b565b82525050565b600060208201905061061660008301846105f2565b92915050565b6000604051905090565b600080fd5b600080fd5b600061063b826103da565b9050919050565b61064b81610630565b811461065657600080fd5b50565b60008135905061066881610642565b92915050565b6106778161041b565b811461068257600080fd5b50565b6000813590506106948161066e565b92915050565b600080fd5b600080fd5b7f4e487b7100000000000000000000000000000000000000000000000000000000600052604160045260246000fd5b6106dc8261047a565b810181811067ffffffffffffffff821117156106fb576106fa6106a4565b5b80604052505050565b600061070e61061c565b905061071a82826106d3565b919050565b600067ffffffffffffffff82111561073a576107396106a4565b5b6107438261047a565b9050602081019050919050565b82818337600083830152505050565b600061077261076d8461071f565b610704565b90508281526020810184848401111561078e5761078d61069f565b5b610799848285610750565b509392505050565b600082601f8301126107b6576107b561069a565b5b81356107c684826020860161075f565b91505092915050565b6000806000606084860312156107e8576107e7610626565b5b60006107f686828701610659565b935050602061080786828701610685565b925050604084013567ffffffffffffffff8111156108285761082761062b565b5b610834868287016107a1565b9150509250925092565b7f4e487b7100000000000000000000000000000000000000000000000000000000600052602260045260246000fd5b6000600282049050600182168061088557607f821691505b6020821081036108985761089761083e565b5b50919050565b7f4e487b7100000000000000000000000000000000000000000000000000000000600052601160045260246000fd5b60006108d88261041b565b91506108e38361041b565b92508282019050808211156108fb576108fa61089e565b5b92915050565b60008190508160005260206000209050919050565b60006020601f8301049050919050565b600082821b905092915050565b6000600883026109637fffffffffffffffffffffffffffffffffffffffffffffffffffffffffffffffff82610926565b61096d8683610926565b95508019841693508086168417925050509392505050565b6000819050919050565b60006109aa6109a56109a08461041b565b610985565b61041b565b9050919050565b6000819050919050565b6109c48361098f565b6109d86109d0826109b1565b848454610933565b825550505050565b600090565b6109ed6109e0565b6109f88184846109bb565b505050565b5b81811015610a1c57610a116000826109e5565b6001810190506109fe565b5050565b601f821115610a6157610a3281610901565b610a3b84610916565b81016020851015610a4a578190505b610a5e610a5685610916565b8301826109fd565b50505b505050565b600082821c905092915050565b6000610a8460001984600802610a66565b1980831691505092915050565b6000610a9d8383610a73565b9150826002028217905092915050565b610ab682610434565b67ffffffffffffffff811115610acf57610ace6106a4565b5b610ad9825461086d565b610ae4828285610a20565b600060209050601f831160018114610b175760008415610b05578287015190505b610b0f8582610a91565b865550610b77565b601f198416610b2586610901565b60005b82811015610b4d57848901518255600182019150602085019450602081019050610b28565b86831015610b6a5784890151610b66601f891682610a73565b8355505b6001600288020188555050505b50505050505056fea2646970667358221220121fd04c65446efca74fe83e080d8dbaa1fb471187fc8216fef0940111838bf664736f6c63430008110033",
  "devdoc": {
    "kind": "dev",
    "methods": {},
    "version": 1
  },
  "userdoc": {
    "kind": "user",
    "methods": {},
    "version": 1
  },
  "storageLayout": {
    "storage": [
      {
        "astId": 3,
        "contract": "contracts/Transactions.sol:Transactions",
        "label": "transactionCount",
        "offset": 0,
        "slot": "0",
        "type": "t_uint256"
      },
      {
        "astId": 18,
        "contract": "contracts/Transactions.sol:Transactions",
        "label": "transactionsArray",
        "offset": 0,
        "slot": "1",
        "type": "t_array(t_struct(TransferStruct)14_storage)dyn_storage"
      }
    ],
    "types": {
      "t_address": {
        "encoding": "inplace",
        "label": "address",
        "numberOfBytes": "20"
      },
      "t_array(t_struct(TransferStruct)14_storage)dyn_storage": {
        "base": "t_struct(TransferStruct)14_storage",
        "encoding": "dynamic_array",
        "label": "struct Transactions.TransferStruct[]",
        "numberOfBytes": "32"
      },
      "t_string_storage": {
        "encoding": "bytes",
        "label": "string",
        "numberOfBytes": "32"
      },
      "t_struct(TransferStruct)14_storage": {
        "encoding": "inplace",
        "label": "struct Transactions.TransferStruct",
        "members": [
          {
            "astId": 5,
            "contract": "contracts/Transactions.sol:Transactions",
            "label": "sender",
            "offset": 0,
            "slot": "0",
            "type": "t_address"
          },
          {
            "astId": 7,
            "contract": "contracts/Transactions.sol:Transactions",
            "label": "reciever",
            "offset": 0,
            "slot": "1",
            "type": "t_address"
          },
          {
            "astId": 9,
            "contract": "contracts/Transactions.sol:Transactions",
            "label": "amount",
            "offset": 0,
            "slot": "2",
            "type": "t_uint256"
          },
          {
            "astId": 11,
            "contract": "contracts/Transactions.sol:Transactions",
            "label": "message",
            "offset": 0,
            "slot": "3",
            "type": "t_string_storage"
          },
          {
            "astId": 13,
            "contract": "contracts/Transactions.sol:Transactions",
            "label": "timestamp",
            "offset": 0,
            "slot": "4",
            "type": "t_uint256"
          }
        ],
        "numberOfBytes": "160"
      },
      "t_uint256": {
        "encoding": "inplace",
        "label": "uint256",
        "numberOfBytes": "32"
      }
    }
  }
}